S01E00004D6963726F636F6E74726F6C6C6572735F5765656B322E7372656338
S113000045C000004BC0000059C000006CC0000097
S113001045C0000043C0000041C000003FC00000D4
S11300203DC000003BC0000039C0000037C00000E4
S113003035C0000033C0000031C000002FC00000F4
S11300402DC000002BC0000029C0000027C0000004
S113005025C0000023C0000021C000001FC0000014
S11300601DC000001BC0000019C0000017C0000024
S113007015C0000013C0000011C000000FC0000034
S11300800DC000000BC0000009C0000011241FBEF9
S1130090CFEFD0E1DEBFCDBF3BD03CC0B1CF8FEFBF
S11300A084BB11BA81E085BBEAE6F0E080818C6311
S11300B0808389B7866089BF789408951F920F92D0
S11300C00FB60F9211248F9385B3803819F481E011
S11300D085BB03C085B3880F85BB8F910F900FBE7E
S11300E00F901F9018951F920F920FB60F92112424
S11300F08F9385B3811103C080E885BB03C085B3AA
S1130100869585BB8F910F900FBE0F901F90189509
S10B0110C6DFFFCFF894FFCF16
S9030000FC
