S01E00004D6963726F636F6E74726F6C6C6572735F5765656B322E7372656338
S113000045C0000060C0000068C00000BBC0000024
S11300105AC0000058C0000056C0000054C0000080
S113002052C0000050C000004EC000004CC0000090
S11300304AC0000048C0000046C0000044C00000A0
S113004042C0000040C000003EC000003CC00000B0
S11300503AC0000038C0000036C0000034C00000C0
S113006032C0000030C000002EC000002CC00000D0
S11300702AC0000028C0000026C0000024C00000E0
S113008022C0000020C000001EC0000011241FBEBA
S1130090CFEFD0E1DEBFCDBF11E0A0E0B1E0E2E9F7
S11300A0F2E000E00BBF02C007900D92A032B1074E
S11300B0D9F721E0A0E2B1E001C01D92A432B20759
S11300C0E1F7E3D0E4C09CCF8031910528F4FC0132
S11300D0E05FFE4F808185BB08951F920F920FB69B
S11300E00F9211240BB60F922F933F934F935F936C
S11300F06F937F938F939F93AF93BF93EF93FF93EC
S113010080912201909123018230910551F485B3AD
S1130110803819F481E085BB22C085B3880F85BB84
S11301201EC00397E1F480B3863041F4109221019C
S11301301092200180E090E0C7DF11C0809120017F
S1130140909121018E3091052CF401969093210118
S1130150809320018091200190912101B5DFFF91CE
S1130160EF91BF91AF919F918F917F916F915F912B
S11301704F913F912F910F900BBE0F900FBE0F9098
S11301801F9018951F920F920FB60F9211240BB661
S11301900F922F933F934F935F936F937F938F931C
S11301A09F93AF93BF93EF93FF938091220190911C
S11301B023018230910551F485B3811103C080E895
S11301C085BB22C085B3869585BB1EC00397E1F429
S11301D080B3863041F4109221011092200180E016
S11301E090E072DF11C080912001909121011816D6
S11301F019062CF40197909321018093200180919A
S113020020019091210160DFFF91EF91BF91AF91A7
S11302109F918F917F916F915F914F913F912F911A
S11302200F900BBE0F900FBE0F901F9018951816CD
S113023019066CF420E030E0EFECF7E03197F1F7C9
S113024000C000002F5F3F4F82179307A9F708955E
S1130250EF92FF921F93CF93DF93C0E0D1E00F2E74
S1130260F0E1EF2EF1E0FF2EF02D1FEF14BB89918A
S113027085BB84E690E0DBDFCE15DF05B9F7DF91BF
S1130280CF911F91FF90EF900895E2DFFECFF89495
S1050290FFCF9A
S11302924050585C5E5F5F7F3F2F27232120200060
S11302A23F065B4F666D7D077F6F777F395E79000E
S9030000FC
